{"abi":[{"type":"function","name":"MAX_PROPOSALS","inputs":[],"outputs":[{"name":"","type":"uint256","internalType":"uint256"}],"stateMutability":"view"},{"type":"function","name":"closeProposal","inputs":[{"name":"proposalId","type":"uint256","internalType":"uint256"}],"outputs":[],"stateMutability":"nonpayable"},{"type":"function","name":"createProposal","inputs":[{"name":"descriptionHash","type":"bytes32","internalType":"bytes32"},{"name":"durationSeconds","type":"uint32","internalType":"uint32"}],"outputs":[{"name":"proposalId","type":"uint256","internalType":"uint256"}],"stateMutability":"nonpayable"},{"type":"function","name":"getProposal","inputs":[{"name":"proposalId","type":"uint256","internalType":"uint256"}],"outputs":[{"name":"descriptionHash","type":"bytes32","internalType":"bytes32"},{"name":"yesVotes","type":"uint32","internalType":"uint32"},{"name":"noVotes","type":"uint32","internalType":"uint32"},{"name":"deadline","type":"uint32","internalType":"uint32"},{"name":"isActive","type":"bool","internalType":"bool"}],"stateMutability":"view"},{"type":"function","name":"hasVoted","inputs":[{"name":"voter","type":"address","internalType":"address"},{"name":"proposalId","type":"uint256","internalType":"uint256"}],"outputs":[{"name":"","type":"bool","internalType":"bool"}],"stateMutability":"view"},{"type":"function","name":"proposalCount","inputs":[],"outputs":[{"name":"","type":"uint256","internalType":"uint256"}],"stateMutability":"view"},{"type":"function","name":"vote","inputs":[{"name":"proposalId","type":"uint256","internalType":"uint256"},{"name":"support","type":"bool","internalType":"bool"}],"outputs":[],"stateMutability":"nonpayable"},{"type":"function","name":"voterRegistry","inputs":[{"name":"","type":"address","internalType":"address"}],"outputs":[{"name":"","type":"uint256","internalType":"uint256"}],"stateMutability":"view"},{"type":"event","name":"ProposalClosed","inputs":[{"name":"proposalId","type":"uint256","indexed":true,"internalType":"uint256"}],"anonymous":false},{"type":"event","name":"ProposalCreated","inputs":[{"name":"proposalId","type":"uint256","indexed":true,"internalType":"uint256"},{"name":"descriptionHash","type":"bytes32","indexed":true,"internalType":"bytes32"},{"name":"deadline","type":"uint32","indexed":false,"internalType":"uint32"}],"anonymous":false},{"type":"event","name":"Voted","inputs":[{"name":"proposalId","type":"uint256","indexed":true,"internalType":"uint256"},{"name":"voter","type":"address","indexed":true,"internalType":"address"},{"name":"support","type":"bool","indexed":false,"internalType":"bool"}],"anonymous":false},{"type":"error","name":"AlreadyVoted","inputs":[]},{"type":"error","name":"InvalidDuration","inputs":[]},{"type":"error","name":"InvalidProposal","inputs":[]},{"type":"error","name":"MaxProposalsReached","inputs":[]},{"type":"error","name":"TimestampOverflow","inputs":[]},{"type":"error","name":"VotingClosed","inputs":[]}],"bytecode":{"object":"0x6080604052348015600e575f5ffd5b50610cc98061001c5f395ff3fe608060405234801561000f575f5ffd5b5060043610610086575f3560e01c806391751c131161005957806391751c1314610136578063c7f758a814610154578063c9d27afe14610188578063da35c664146101a457610086565b80630386a0161461008a57806342545825146100a65780634763d4e7146100d657806359aef53c14610106575b5f5ffd5b6100a4600480360381019061009f9190610923565b6101c2565b005b6100c060048036038101906100bb91906109a8565b6102dd565b6040516100cd9190610a00565b60405180910390f35b6100f060048036038101906100eb9190610a19565b61036d565b6040516100fd9190610a53565b60405180910390f35b610120600480360381019061011b9190610ad8565b610382565b60405161012d9190610a53565b60405180910390f35b61013e61059f565b60405161014b9190610a53565b60405180910390f35b61016e60048036038101906101699190610923565b6105a5565b60405161017f959493929190610b34565b60405180910390f35b6101a2600480360381019061019d9190610baf565b610671565b005b6101ac6108e1565b6040516101b99190610a53565b60405180910390f35b5f8054905081106101ff576040517fee03280800000000000000000000000000000000000000000000000000000000815260040160405180910390fd5b5f5f828154811061021357610212610bed565b5b905f5260205f209060020201905080600101600c9054906101000a900460ff16158061025957508060010160089054906101000a900463ffffffff1663ffffffff164211155b15610290576040517f66b6cb4a00000000000000000000000000000000000000000000000000000000815260040160405180910390fd5b5f81600101600c6101000a81548160ff021916908315150217905550817f887777ccf43690541bed9e00b10d0fccfa7520b11875f09847a57b3085d8ab9260405160405180910390a25050565b5f6101008210610319576040517fee03280800000000000000000000000000000000000000000000000000000000815260040160405180910390fd5b5f826001901b90505f8160015f8773ffffffffffffffffffffffffffffffffffffffff1673ffffffffffffffffffffffffffffffffffffffff1681526020019081526020015f205416141591505092915050565b6001602052805f5260405f205f915090505481565b5f5f8263ffffffff16036103c2576040517f7616640100000000000000000000000000000000000000000000000000000000815260040160405180910390fd5b5f8054905090506101008110610404576040517f119fa94500000000000000000000000000000000000000000000000000000000815260040160405180910390fd5b5f4290505f8363ffffffff168261041b9190610c47565b905063ffffffff801681111561045d576040517f549a019700000000000000000000000000000000000000000000000000000000815260040160405180910390fd5b5f6040518060a001604052808781526020015f63ffffffff1681526020015f63ffffffff1681526020018363ffffffff16815260200160011515815250908060018154018082558091505060019003905f5260205f2090600202015f909190919091505f820151815f01556020820151816001015f6101000a81548163ffffffff021916908363ffffffff16021790555060408201518160010160046101000a81548163ffffffff021916908363ffffffff16021790555060608201518160010160086101000a81548163ffffffff021916908363ffffffff160217905550608082015181600101600c6101000a81548160ff021916908315150217905550505084837fa43ee6b301ce6d19a3e0a37164141d91c7b5343fee8340623a196f22f379d41d8360405161058f9190610c7a565b60405180910390a3505092915050565b61010081565b5f5f5f5f5f5f8054905086106105e7576040517fee03280800000000000000000000000000000000000000000000000000000000815260040160405180910390fd5b5f5f87815481106105fb576105fa610bed565b5b905f5260205f2090600202019050805f0154816001015f9054906101000a900463ffffffff168260010160049054906101000a900463ffffffff168360010160089054906101000a900463ffffffff1684600101600c9054906101000a900460ff16955095509550955095505091939590929450565b5f8054905082106106ae576040517fee03280800000000000000000000000000000000000000000000000000000000815260040160405180910390fd5b5f5f83815481106106c2576106c1610bed565b5b905f5260205f209060020201905080600101600c9054906101000a900460ff16158061070757508060010160089054906101000a900463ffffffff1663ffffffff1642115b1561073e576040517f66b6cb4a00000000000000000000000000000000000000000000000000000000815260040160405180910390fd5b5f836001901b90505f60015f3373ffffffffffffffffffffffffffffffffffffffff1673ffffffffffffffffffffffffffffffffffffffff1681526020019081526020015f205490505f828216146107c2576040517f7c9a1cf900000000000000000000000000000000000000000000000000000000815260040160405180910390fd5b81811760015f3373ffffffffffffffffffffffffffffffffffffffff1673ffffffffffffffffffffffffffffffffffffffff1681526020019081526020015f2081905550831561084d57826001015f81819054906101000a900463ffffffff168092919060010191906101000a81548163ffffffff021916908363ffffffff1602179055505061088b565b82600101600481819054906101000a900463ffffffff168092919060010191906101000a81548163ffffffff021916908363ffffffff160217905550505b3373ffffffffffffffffffffffffffffffffffffffff16857ff2913dbe661ee2acc4a046d8fbcdc792373bda34c41c6086484b5345e5785e5f866040516108d29190610a00565b60405180910390a35050505050565b5f5f80549050905090565b5f5ffd5b5f819050919050565b610902816108f0565b811461090c575f5ffd5b50565b5f8135905061091d816108f9565b92915050565b5f60208284031215610938576109376108ec565b5b5f6109458482850161090f565b91505092915050565b5f73ffffffffffffffffffffffffffffffffffffffff82169050919050565b5f6109778261094e565b9050919050565b6109878161096d565b8114610991575f5ffd5b50565b5f813590506109a28161097e565b92915050565b5f5f604083850312156109be576109bd6108ec565b5b5f6109cb85828601610994565b92505060206109dc8582860161090f565b9150509250929050565b5f8115159050919050565b6109fa816109e6565b82525050565b5f602082019050610a135f8301846109f1565b92915050565b5f60208284031215610a2e57610a2d6108ec565b5b5f610a3b84828501610994565b91505092915050565b610a4d816108f0565b82525050565b5f602082019050610a665f830184610a44565b92915050565b5f819050919050565b610a7e81610a6c565b8114610a88575f5ffd5b50565b5f81359050610a9981610a75565b92915050565b5f63ffffffff82169050919050565b610ab781610a9f565b8114610ac1575f5ffd5b50565b5f81359050610ad281610aae565b92915050565b5f5f60408385031215610aee57610aed6108ec565b5b5f610afb85828601610a8b565b9250506020610b0c85828601610ac4565b9150509250929050565b610b1f81610a6c565b82525050565b610b2e81610a9f565b82525050565b5f60a082019050610b475f830188610b16565b610b546020830187610b25565b610b616040830186610b25565b610b6e6060830185610b25565b610b7b60808301846109f1565b9695505050505050565b610b8e816109e6565b8114610b98575f5ffd5b50565b5f81359050610ba981610b85565b92915050565b5f5f60408385031215610bc557610bc46108ec565b5b5f610bd28582860161090f565b9250506020610be385828601610b9b565b9150509250929050565b7f4e487b71000000000000000000000000000000000000000000000000000000005f52603260045260245ffd5b7f4e487b71000000000000000000000000000000000000000000000000000000005f52601160045260245ffd5b5f610c51826108f0565b9150610c5c836108f0565b9250828201905080821115610c7457610c73610c1a565b5b92915050565b5f602082019050610c8d5f830184610b25565b9291505056fea264697066735822122045dc8266ac948ebc5e1fc1cb7af3921b482c4997f5c4c28152e4eced61d9b65164736f6c63430008210033","linkReferences":{}},"methodIdentifiers":{"MAX_PROPOSALS()":"91751c13","closeProposal(uint256)":"0386a016","createProposal(bytes32,uint32)":"59aef53c","getProposal(uint256)":"c7f758a8","hasVoted(address,uint256)":"42545825","proposalCount()":"da35c664","vote(uint256,bool)":"c9d27afe","voterRegistry(address)":"4763d4e7"},"id":0}