{"abi":[{"type":"constructor","inputs":[{"name":"_stakingToken","type":"address","internalType":"address"},{"name":"_rewardToken","type":"address","internalType":"address"},{"name":"_rewardRatePerSecond","type":"uint256","internalType":"uint256"},{"name":"_owner","type":"address","internalType":"address"}],"stateMutability":"nonpayable"},{"type":"function","name":"BOOST_180_DAYS","inputs":[],"outputs":[{"name":"","type":"uint256","internalType":"uint256"}],"stateMutability":"view"},{"type":"function","name":"BOOST_30_DAYS","inputs":[],"outputs":[{"name":"","type":"uint256","internalType":"uint256"}],"stateMutability":"view"},{"type":"function","name":"BOOST_365_DAYS","inputs":[],"outputs":[{"name":"","type":"uint256","internalType":"uint256"}],"stateMutability":"view"},{"type":"function","name":"BOOST_DIVISOR","inputs":[],"outputs":[{"name":"","type":"uint256","internalType":"uint256"}],"stateMutability":"view"},{"type":"function","name":"BOOST_NONE","inputs":[],"outputs":[{"name":"","type":"uint256","internalType":"uint256"}],"stateMutability":"view"},{"type":"function","name":"LOCK_180_DAYS","inputs":[],"outputs":[{"name":"","type":"uint256","internalType":"uint256"}],"stateMutability":"view"},{"type":"function","name":"LOCK_30_DAYS","inputs":[],"outputs":[{"name":"","type":"uint256","internalType":"uint256"}],"stateMutability":"view"},{"type":"function","name":"LOCK_365_DAYS","inputs":[],"outputs":[{"name":"","type":"uint256","internalType":"uint256"}],"stateMutability":"view"},{"type":"function","name":"PRECISION","inputs":[],"outputs":[{"name":"","type":"uint256","internalType":"uint256"}],"stateMutability":"view"},{"type":"function","name":"calculateAPY","inputs":[],"outputs":[{"name":"apy","type":"uint256","internalType":"uint256"}],"stateMutability":"view"},{"type":"function","name":"calculateReward","inputs":[{"name":"user","type":"address","internalType":"address"}],"outputs":[{"name":"totalReward","type":"uint256","internalType":"uint256"}],"stateMutability":"view"},{"type":"function","name":"checkRewardSolvency","inputs":[{"name":"windowSeconds","type":"uint256","internalType":"uint256"}],"outputs":[{"name":"solvent","type":"bool","internalType":"bool"}],"stateMutability":"view"},{"type":"function","name":"claimRewards","inputs":[],"outputs":[],"stateMutability":"nonpayable"},{"type":"function","name":"emergencyWithdraw","inputs":[],"outputs":[],"stateMutability":"nonpayable"},{"type":"function","name":"fundRewards","inputs":[{"name":"amount","type":"uint256","internalType":"uint256"}],"outputs":[],"stateMutability":"nonpayable"},{"type":"function","name":"getPosition","inputs":[{"name":"user","type":"address","internalType":"address"}],"outputs":[{"name":"staked","type":"uint256","internalType":"uint256"},{"name":"claimableReward","type":"uint256","internalType":"uint256"},{"name":"lockEnds","type":"uint256","internalType":"uint256"},{"name":"boost","type":"uint256","internalType":"uint256"},{"name":"timeStaked","type":"uint256","internalType":"uint256"}],"stateMutability":"view"},{"type":"function","name":"lockDuration","inputs":[{"name":"","type":"address","internalType":"address"}],"outputs":[{"name":"","type":"uint256","internalType":"uint256"}],"stateMutability":"view"},{"type":"function","name":"lockEndTime","inputs":[{"name":"","type":"address","internalType":"address"}],"outputs":[{"name":"","type":"uint256","internalType":"uint256"}],"stateMutability":"view"},{"type":"function","name":"owner","inputs":[],"outputs":[{"name":"","type":"address","internalType":"address"}],"stateMutability":"view"},{"type":"function","name":"pendingRewards","inputs":[{"name":"","type":"address","internalType":"address"}],"outputs":[{"name":"","type":"uint256","internalType":"uint256"}],"stateMutability":"view"},{"type":"function","name":"renounceOwnership","inputs":[],"outputs":[],"stateMutability":"nonpayable"},{"type":"function","name":"rewardRatePerSecond","inputs":[],"outputs":[{"name":"","type":"uint256","internalType":"uint256"}],"stateMutability":"view"},{"type":"function","name":"rewardToken","inputs":[],"outputs":[{"name":"","type":"address","internalType":"contract IERC20"}],"stateMutability":"view"},{"type":"function","name":"setRewardRate","inputs":[{"name":"newRate","type":"uint256","internalType":"uint256"}],"outputs":[],"stateMutability":"nonpayable"},{"type":"function","name":"stake","inputs":[{"name":"amount","type":"uint256","internalType":"uint256"},{"name":"_lockSeconds","type":"uint256","internalType":"uint256"}],"outputs":[],"stateMutability":"nonpayable"},{"type":"function","name":"stakeTimestamp","inputs":[{"name":"","type":"address","internalType":"address"}],"outputs":[{"name":"","type":"uint256","internalType":"uint256"}],"stateMutability":"view"},{"type":"function","name":"stakedBalance","inputs":[{"name":"","type":"address","internalType":"address"}],"outputs":[{"name":"","type":"uint256","internalType":"uint256"}],"stateMutability":"view"},{"type":"function","name":"stakingToken","inputs":[],"outputs":[{"name":"","type":"address","internalType":"contract IERC20"}],"stateMutability":"view"},{"type":"function","name":"totalStaked","inputs":[],"outputs":[{"name":"","type":"uint256","internalType":"uint256"}],"stateMutability":"view"},{"type":"function","name":"transferOwnership","inputs":[{"name":"newOwner","type":"address","internalType":"address"}],"outputs":[],"stateMutability":"nonpayable"},{"type":"function","name":"unstake","inputs":[{"name":"amount","type":"uint256","internalType":"uint256"}],"outputs":[],"stateMutability":"nonpayable"},{"type":"event","name":"EmergencyWithdraw","inputs":[{"name":"user","type":"address","indexed":true,"internalType":"address"},{"name":"amount","type":"uint256","indexed":false,"internalType":"uint256"},{"name":"forfeitedRewards","type":"uint256","indexed":false,"internalType":"uint256"}],"anonymous":false},{"type":"event","name":"OwnershipTransferred","inputs":[{"name":"previousOwner","type":"address","indexed":true,"internalType":"address"},{"name":"newOwner","type":"address","indexed":true,"internalType":"address"}],"anonymous":false},{"type":"event","name":"RewardRateUpdated","inputs":[{"name":"oldRate","type":"uint256","indexed":false,"internalType":"uint256"},{"name":"newRate","type":"uint256","indexed":false,"internalType":"uint256"}],"anonymous":false},{"type":"event","name":"RewardsClaimed","inputs":[{"name":"user","type":"address","indexed":true,"internalType":"address"},{"name":"reward","type":"uint256","indexed":false,"internalType":"uint256"}],"anonymous":false},{"type":"event","name":"RewardsFunded","inputs":[{"name":"funder","type":"address","indexed":true,"internalType":"address"},{"name":"amount","type":"uint256","indexed":false,"internalType":"uint256"}],"anonymous":false},{"type":"event","name":"Staked","inputs":[{"name":"user","type":"address","indexed":true,"internalType":"address"},{"name":"amount","type":"uint256","indexed":false,"internalType":"uint256"},{"name":"lockDuration","type":"uint256","indexed":false,"internalType":"uint256"},{"name":"lockEndTime","type":"uint256","indexed":false,"internalType":"uint256"}],"anonymous":false},{"type":"event","name":"Unstaked","inputs":[{"name":"user","type":"address","indexed":true,"internalType":"address"},{"name":"amount","type":"uint256","indexed":false,"internalType":"uint256"}],"anonymous":false},{"type":"error","name":"InsufficientRewardPool","inputs":[]},{"type":"error","name":"InvalidLockDuration","inputs":[]},{"type":"error","name":"NoRewardsToClaim","inputs":[]},{"type":"error","name":"NothingStaked","inputs":[]},{"type":"error","name":"OwnableInvalidOwner","inputs":[{"name":"owner","type":"address","internalType":"address"}]},{"type":"error","name":"OwnableUnauthorizedAccount","inputs":[{"name":"account","type":"address","internalType":"address"}]},{"type":"error","name":"ReentrancyGuardReentrantCall","inputs":[]},{"type":"error","name":"SafeERC20FailedOperation","inputs":[{"name":"token","type":"address","internalType":"address"}]},{"type":"error","name":"StillLocked","inputs":[]},{"type":"error","name":"ZeroAmount","inputs":[]}],"bytecode":{"object":"0x60c0346101fc57601f61142038819003918201601f19168301916001600160401b03831184841017610200578084926080946040528339810103126101fc5761004781610214565b61005360208301610214565b610064606060408501519401610214565b60017f9b779b17422d0df92223018b32b4d1fa46e071723d6817e2486d003becc55f00556001600160a01b03169182156101e9575f80546001600160a01b031981168517825560405194916001600160a01b03909116907f8be0079c531659141344cd1fd0a4f28419497f9722a3daafe3b4186f6b6457e09080a36001600160a01b03169182156101a757506001600160a01b03169081156101625760805260a0526001556040516111f7908161022982396080518181816102ff015281816105f8015281816107140152610c03015260a05181818161018301528181610467015281816108b801528181610a0101528181610c7c0152610cee0152f35b60405162461bcd60e51b815260206004820152601560248201527f59463a207a65726f2072657761726420746f6b656e00000000000000000000006044820152606490fd5b62461bcd60e51b815260206004820152601660248201527f59463a207a65726f207374616b696e6720746f6b656e000000000000000000006044820152606490fd5b631e4fbdf760e01b5f525f60045260245ffd5b5f80fd5b634e487b7160e01b5f52604160045260245ffd5b51906001600160a01b03821682036101fc5756fe60806040526004361015610011575f80fd5b5f3560e01c806314272efa14610e9c57806316c1973914610dea5780632298a0eb14610dae5780632a64830014610d945780632e17de7814610b3e57806331d7a26214610b02578063372500ab14610998578063467e5fa61461095c57806351383f981461093e57806354ac1ffa146108655780635ca995031461084a5780635d773b2c1461082d57806360217267146107f15780636c779d5d146107d6578063702590771461079a578063715018a61461074357806372f702f3146106ff5780637b0472f01461054b5780637c6e5db71461052e578063817b1cd21461051157806382865218146104f45780638424f723146104ef5780638da5cb5b146104c857806393707a191461043d5780639e447fc6146103ea578063aaf5eb68146103c8578063cebfb763146103ad578063d82e396214610376578063db2e21bc1461023f578063f2fde38b146101b65763f7c618c11461016e575f80fd5b346101b2575f3660031901126101b2576040517f00000000000000000000000000000000000000000000000000000000000000006001600160a01b03168152602090f35b5f80fd5b346101b25760203660031901126101b2576004356001600160a01b038116908190036101b2576101e4611112565b801561022c575f80546001600160a01b03198116831782556001600160a01b0316907f8be0079c531659141344cd1fd0a4f28419497f9722a3daafe3b4186f6b6457e09080a3005b631e4fbdf760e01b5f525f60045260245ffd5b346101b2575f3660031901126101b257610257610ff7565b335f52600360205260405f2054801561036757335f526005602052600a6102a961028e60405f20546102883361102f565b90610f36565b335f5260076020526102a360405f2054610fc0565b90610ed8565b04335f5260036020525f60408120556102c482600254610eb7565b600255335f818152600560209081526040808320839055600482528083208390556006825280832083905560079091528120556103239083907f0000000000000000000000000000000000000000000000000000000000000000611091565b60405191825260208201527fbb757047c2b5f3974fe26b7c10f732e7bce710b0952a71082702781e62ae059560403392a260015f805160206111a283398151915255005b639fe7bfd960e01b5f5260045ffd5b346101b25760203660031901126101b2576004356001600160a01b03811681036101b2576103a5602091610f79565b604051908152f35b346101b2575f3660031901126101b2576020604051600f8152f35b346101b2575f3660031901126101b2576020604051670de0b6b3a76400008152f35b346101b25760203660031901126101b257600435610406611112565b7fc390a98ace15a7bb6bab611eedfdbb2685043b241a869420043cdfb23ccfee5060406001548151908152836020820152a1600155005b346101b25760203660031901126101b257600435610459611112565b80156104b95761048b8130337f0000000000000000000000000000000000000000000000000000000000000000611138565b6040519081527fd53214ca07be5520e229c395f05a3e5c0697ec6279184ffbe2758d304fd322cc60203392a2005b631f2a200560e01b5f5260045ffd5b346101b2575f3660031901126101b2575f546040516001600160a01b039091168152602090f35b610e9c565b346101b2575f3660031901126101b257602060405162ed4e008152f35b346101b2575f3660031901126101b2576020600254604051908152f35b346101b2575f3660031901126101b257602060405162278d008152f35b346101b25760403660031901126101b25760043560243561056a610ff7565b81156104b957801515806106f2575b806106e5575b806106d7575b6106c857335f52600360205260405f20546106a1575b335f52600360205260405f206105b2838254610f36565b9055335f5260046020524260405f20556105ce82600254610f36565b6002556105db8142610f36565b335f52600660205260405f20548111610680575b8261061c8130337f0000000000000000000000000000000000000000000000000000000000000000611138565b335f52600760205260405f2054335f52600660205260405f205490604051928352602083015260408201527fb4caaf29adda3eefee3ad552a8e85058589bf834c7466cae4ee58787f70589ed60603392a260015f805160206111a283398151915255005b335f52600660205260405f2055335f52600760205260405f205581806105ef565b6106aa3361102f565b335f5260056020526106c160405f20918254610f36565b905561059b565b630f962f3d60e31b5f5260045ffd5b506301e13380811415610585565b5062ed4e0081141561057f565b5062278d00811415610579565b346101b2575f3660031901126101b2576040517f00000000000000000000000000000000000000000000000000000000000000006001600160a01b03168152602090f35b346101b2575f3660031901126101b25761075b611112565b5f80546001600160a01b0319811682556001600160a01b03167f8be0079c531659141344cd1fd0a4f28419497f9722a3daafe3b4186f6b6457e08280a3005b346101b25760203660031901126101b2576004356001600160a01b038116908190036101b2575f526004602052602060405f2054604051908152f35b346101b2575f3660031901126101b257602060405160148152f35b346101b25760203660031901126101b2576004356001600160a01b038116908190036101b2575f526003602052602060405f2054604051908152f35b346101b2575f3660031901126101b2576020600154604051908152f35b346101b2575f3660031901126101b2576020604051600c8152f35b346101b25760203660031901126101b257670de0b6b3a764000061089a6002546108956004359160015490610ed8565b610ed8565b6040516370a0823160e01b81523060048201529190046020826024817f00000000000000000000000000000000000000000000000000000000000000006001600160a01b03165afa908115610933575f916108fe575b602092506040519110158152f35b90506020823d60201161092b575b8161091960209383610f43565b810103126101b25760209151906108f0565b3d915061090c565b6040513d5f823e3d90fd5b346101b2575f3660031901126101b25760206040516301e133808152f35b346101b25760203660031901126101b2576004356001600160a01b038116908190036101b2575f526007602052602060405f2054604051908152f35b346101b2575f3660031901126101b2576109b0610ff7565b335f52600360205260405f20541561036757600a6109e561028e6109d33361102f565b335f52600560205260405f2054610f36565b048015610af3576040516370a0823160e01b81523060048201527f0000000000000000000000000000000000000000000000000000000000000000906020816024816001600160a01b0386165afa80156109335783915f91610abe575b5010610aaf5781610a7091335f5260056020525f6040812055335f5260046020524260405f20553390611091565b6040519081527ffc30cddea38e2bf4d6ea7d3f9ed3b6ad7f176419f4963bd81318067a4aee73fe60203392a260015f805160206111a283398151915255005b633270436b60e01b5f5260045ffd5b9150506020813d602011610aeb575b81610ada60209383610f43565b810103126101b25782905184610a42565b3d9150610acd565b6373380d9960e01b5f5260045ffd5b346101b25760203660031901126101b2576004356001600160a01b038116908190036101b2575f526005602052602060405f2054604051908152f35b346101b25760203660031901126101b257600435610b5a610ff7565b80156104b957335f5260036020528060405f20541061036757335f52600660205260405f20544210610d8557335f526005602052600a610ba461028e60405f20546102883361102f565b04335f52600360205260405f20610bbc838254610eb7565b9055610bca82600254610eb7565b600255335f5260056020525f6040812055335f5260046020524260405f2055335f52600360205260405f205415610d64575b610c2782337f0000000000000000000000000000000000000000000000000000000000000000611091565b80151580610cd2575b610c75575b506040519081527f0f5bb82176feb1b5e747e28471aa92156a04d9f3ab9f45f28e2d704232b93f7560203392a260015f805160206111a283398151915255005b610ca081337f0000000000000000000000000000000000000000000000000000000000000000611091565b6040519081527ffc30cddea38e2bf4d6ea7d3f9ed3b6ad7f176419f4963bd81318067a4aee73fe60203392a281610c35565b506040516370a0823160e01b81523060048201526020816024817f00000000000000000000000000000000000000000000000000000000000000006001600160a01b03165afa80156109335782915f91610d2f575b501015610c30565b9150506020813d602011610d5c575b81610d4b60209383610f43565b810103126101b25781905184610d27565b3d9150610d3e565b335f5260066020525f6040812055335f5260076020525f6040812055610bfc565b636100d92960e11b5f5260045ffd5b346101b2575f3660031901126101b25760206103a5610eeb565b346101b25760203660031901126101b2576004356001600160a01b038116908190036101b2575f526006602052602060405f2054604051908152f35b346101b25760203660031901126101b2576004356001600160a01b038116908181036101b2578160a0925f526003602052610e2960405f205492610f79565b90805f52600660205260405f2054815f526007602052610e4c60405f2054610fc0565b91805f52600460205260405f2054155f14610e8157505f925b6040519485526020850152604084015260608301526080820152f35b5f526004602052610e9660405f205442610eb7565b92610e65565b346101b2575f3660031901126101b2576020604051600a8152f35b91908203918211610ec457565b634e487b7160e01b5f52601160045260245ffd5b81810292918115918404141715610ec457565b60025415610f32576001546301e133808102908082046301e133801481151715610ec45763bbf81e00029080820460641490151715610ec457670de0b6b3a7640000900490565b5f90565b91908201809211610ec457565b90601f8019910116810190811067ffffffffffffffff821117610f6557604052565b634e487b7160e01b5f52604160045260245ffd5b610fbc600a91610fa7610f8b8261102f565b9160018060a01b031691825f52600560205260405f2054610f36565b905f5260076020526102a360405f2054610fc0565b0490565b6301e13380811015610ff15762ed4e00811015610feb5762278d001115610fe657600a90565b600c90565b50600f90565b50601490565b60025f805160206111a283398151915254146110205760025f805160206111a283398151915255565b633ee5aeb560e01b5f5260045ffd5b6001600160a01b03165f9081526003602090815260408083205460049092529091205481158015611089575b61108357670de0b6b3a764000091610895611079610fbc9342610eb7565b9160015490610ed8565b50505f90565b50801561105b565b916040519163a9059cbb60e01b5f5260018060a01b031660045260245260205f60448180865af19060015f51148216156110f1575b604052156110d15750565b635274afe760e01b5f9081526001600160a01b0391909116600452602490fd5b90600181151661110957823b15153d151616906110c6565b503d5f823e3d90fd5b5f546001600160a01b0316330361112557565b63118cdaa760e01b5f523360045260245ffd5b6040516323b872dd60e01b5f9081526001600160a01b039384166004529290931660245260449390935260209060648180865af19060015f5114821615611189575b6040525f606052156110d15750565b90600181151661110957823b15153d1516169061117a56fe9b779b17422d0df92223018b32b4d1fa46e071723d6817e2486d003becc55f00a264697066735822122049ff94c3e43d0e61548d422e3567ab4a35770caf304a418d6a357f8146f1f5c664736f6c634300081a0033","linkReferences":{}},"methodIdentifiers":{"BOOST_180_DAYS()":"cebfb763","BOOST_30_DAYS()":"5ca99503","BOOST_365_DAYS()":"6c779d5d","BOOST_DIVISOR()":"14272efa","BOOST_NONE()":"8424f723","LOCK_180_DAYS()":"82865218","LOCK_30_DAYS()":"7c6e5db7","LOCK_365_DAYS()":"51383f98","PRECISION()":"aaf5eb68","calculateAPY()":"2a648300","calculateReward(address)":"d82e3962","checkRewardSolvency(uint256)":"54ac1ffa","claimRewards()":"372500ab","emergencyWithdraw()":"db2e21bc","fundRewards(uint256)":"93707a19","getPosition(address)":"16c19739","lockDuration(address)":"467e5fa6","lockEndTime(address)":"2298a0eb","owner()":"8da5cb5b","pendingRewards(address)":"31d7a262","renounceOwnership()":"715018a6","rewardRatePerSecond()":"5d773b2c","rewardToken()":"f7c618c1","setRewardRate(uint256)":"9e447fc6","stake(uint256,uint256)":"7b0472f0","stakeTimestamp(address)":"70259077","stakedBalance(address)":"60217267","stakingToken()":"72f702f3","totalStaked()":"817b1cd2","transferOwnership(address)":"f2fde38b","unstake(uint256)":"2e17de78"},"id":0}